:100000000C9494080C94BC080C94BC080C94BC0888
:100010000C94BC080C94BC080C94BC080C94BC0850
:100020000C94BC080C94BC080C94BC080C94BC0840
:100030000C94BC080C94BC080C94BC080C94BC0830
:100040000C94C5280C94BC080C94C1260C94F3267F
:100050000C94BC080C94BC080C94BC080C94BC0810
:100060000C94BC080C94BC084E65787400546F70F6
:1000700000436F756E7465720042726F77736541ED
:100080006C6C0053746174757354656E456E747254
:1000900069657300537461747573004765744964CE
:1000A0000044656C657465005570646174655370D7
:1000B00065636966696349640055706461746500CD
:1000C00053656C656374496454656E456E747269FA
:1000D00065730053656C65637400496E7365727473
:1000E000496454656E456E747269657300496E7338
:1000F000657274496400496E736572744368656320
:100100006B496400496E7365727400436C65616E7F
:10011000002E2E2F54657374585461626C652E63E3
:10012000707000626C696E6B696E675F4C454473FA
:100130002E47657449642829003D3D0069642B2BD6
:10014000002E2E2F54657374585461626C652E63B3
:10015000707000626C696E6B696E675F4C454473CA
:100160002E546F702829003D3D0074727565002E75
:100170002E2F54657374585461626C652E637070D1
:1001800000626C696E6B696E675F4C4544732E54F8
:100190006F702829003D3D0066616C7365002E2E4E
:1001A0002F54657374585461626C652E63707000CF
:1001B000626C696E6B696E675F4C4544732E546F59
:1001C000702829003D3D0074727565002E2E2F5455
:1001D000657374585461626C652E63707000626C54
:1001E000696E6B696E675F4C4544732E4765744951
:1001F000642829003D3D0032002E2E2F5465737473
:10020000585461626C652E63707000626C696E6B2D
:10021000696E675F4C4544732E546F702829003D0A
:100220003D0074727565002E2E2F546573745854FA
:1002300061626C652E63707000626C696E6B696ED2
:10024000675F4C4544732E47657449642829003D17
:100250003D0031002E2E2F54657374585461626C2A
:10026000652E63707000626C696E6B696E675F4CBF
:100270004544732E546F702829003D3D00747275FB
:1002800065002E2E2F54657374585461626C652E70
:1002900063707000626C696E6B696E675F4C454499
:1002A000732E47657449642829003D3D0030002EB7
:1002B0002E2F54657374585461626C652E63707090
:1002C00000626C696E6B696E675F4C4544732E54B7
:1002D0006F702829003D3D0074727565002E2E2F29
:1002E00054657374585461626C652E63707000625B
:1002F0006C696E6B696E675F4C4544732E496E7313
:10030000657274284C454429003D3D007472756542
:10031000002E2E2F54657374585461626C652E63E1
:10032000707000626C696E6B696E675F4C454473F8
:100330002E546F702829003D3D0066616C73650086
:100340002E2E2F54657374585461626C652E637041
:100350007000626C696E6B696E675F4C4544732E0A
:10036000436F756E7465722829003D3D0031300081
:100370002E2E2F54657374585461626C652E637011
:100380007000626C696E6B696E675F4C4544732EDA
:10039000436F756E7465722829003D3D0030002E54
:1003A0002E2F54657374585461626C652E6370709F
:1003B00000626C696E6B696E675F4C4544732E47D3
:1003C000657449642829003D3D003238002E2E2FE7
:1003D00054657374585461626C652E63707000626A
:1003E0006C696E6B696E675F4C4544732E4765742C
:1003F00049642829003D3D0038002E2E2F54657396
:1004000074585461626C652E63707000626C696E22
:100410006B696E675F4C4544732E47657449642869
:1004200029003D3D003238002E2E2F54657374583C
:100430005461626C652E63707000626C696E6B69EA
:100440006E675F4C4544732E4765744964282900E4
:100450003D3D003138002E2E2F5465737458546181
:10046000626C652E63707000626C696E6B696E679A
:100470005F4C4544732E47657449642829003D3D0F
:100480000038002E2E2F54657374585461626C65C9
:100490002E63707000626C696E6B696E675F4C45AD
:1004A00044732E496E73657274284C45442C32385F
:1004B00029003D3D0074727565002E2E2F54657322
:1004C00074585461626C652E63707000626C696E62
:1004D0006B696E675F4C4544732E5374617475731A
:1004E0002866616C736529003D3D00747275650076
:1004F0002E2E2F54657374585461626C652E637090
:100500007000626C696E6B696E675F4C4544732E58
:10051000496E73657274284C45442C313829003D6E
:100520003D0074727565002E2E2F546573745854F7
:1005300061626C652E63707000626C696E6B696ECF
:10054000675F4C4544732E496E73657274284C4541
:10055000442C3829003D3D0074727565002E2E2F05
:1005600054657374585461626C652E637070004CEE
:1005700045442E70696E003D3D0033002E2E2F54F1
:10058000657374585461626C652E637070004C45DD
:10059000442E70696E003D3D0031002E2E2F5465B3
:1005A0007374585461626C652E637070004C4544DE
:1005B0002E70696E003D3D0030002E2E2F54657365
:1005C00074585461626C652E63707000626C696E61
:1005D0006B696E675F4C4544732E436F756E74652F
:1005E000722829003D3D0038002E2E2F546573746B
:1005F000585461626C652E63707000626C696E6B3A
:10060000696E675F4C4544732E436F756E746572F7
:100610002829003D3D003130002E2E2F5465737483
:10062000585461626C652E63707000626C696E6B09
:10063000696E675F4C4544732E53746174757328FB
:1006400066616C736529003D3D0074727565002E0E
:100650002E2F54657374585461626C652E637070EC
:1006600000626C696E6B696E675F4C4544732E5314
:10067000656C656374283829213D5F5F6E756C6C0D
:10068000003D3D0074727565002E2E2F5465737405
:10069000585461626C652E63707000626C696E6B99
:1006A000696E675F4C4544732E537461747573288B
:1006B00066616C736529003D3D0074727565002E9E
:1006C0002E2F54657374585461626C652E6370707C
:1006D00000626C696E6B696E675F4C4544732E53A4
:1006E000656C656374283229213D5F5F6E756C6CA3
:1006F000003D3D0074727565002E2E2F5465737495
:10070000585461626C652E637070004C45442E70C5
:10071000696E003D3D006964002E2E2F5465737490
:10072000585461626C652E63707000626C696E6B08
:10073000696E675F4C4544732E436F756E746572C6
:100740002829003D3D0032002E2E2F546573745829
:100750005461626C652E63707000626C696E6B69C7
:100760006E675F4C4544732E436F756E74657228D7
:1007700029003D3D0031002E2E2F546573745854CE
:1007800061626C652E63707000626C696E6B696E7D
:10079000675F4C4544732E496E73657274284C45EF
:1007A0004429003D3D0074727565002E2E2F54655E
:1007B0007374585461626C652E63707000626C696A
:1007C0006E6B696E675F4C4544732E436F756E7434
:1007D00065722829003D3D0030002E2E2F54657390
:1007E00074585461626C652E63707000626C696E3F
:1007F0006B696E675F4C4544732E537461747573F7
:100800002866616C736529003D3D00747275650052
:100810002E2E2F54657374585461626C652E63706C
:100820007000626C696E6B696E675F4C4544732E35
:10083000436F756E7465722829003D3D0031002EAE
:100840002E2F54657374585461626C652E637070FA
:1008500000626C696E6B696E675F4C4544732E492C
:100860006E73657274284C454429003D3D007472D6
:100870007565002E2E2F54657374585461626C6533
:100880002E63707000626C696E6B696E675F4C45B9
:1008900044732E47657449642829003D3D0038396A
:1008A000002E2E2F54657374585461626C652E634C
:1008B000707000626C696E6B696E675F4C45447363
:1008C0002E47657449642829003D3D003838002EC4
:1008D0002E2F54657374585461626C652E6370706A
:1008E00000626C696E6B696E675F4C4544732E479E
:1008F000657449642829003D3D0038002E2E2F5490
:10090000657374585461626C652E63707000626C1C
:10091000696E6B696E675F4C4544732E4765744919
:10092000642829003D3D0031002E2E2F546573743C
:10093000585461626C652E63707000626C696E6BF6
:10094000696E675F4C4544732E4765744964282976
:10095000003D3D0030002E2E2F54657374585461B5
:10096000626C652E63707000626C696E6B696E6795
:100970005F4C4544732E496E73657274284C454430
:1009800029003D3D0074727565002E2E2F5465734D
:1009900074585461626C652E63707000626C696E8D
:1009A0006B696E675F4C4544732E496E7365727454
:1009B000284C45442C3829003D3D00747275650073
:1009C0002E2E2F54657374585461626C652E6370BB
:1009D0007000626C696E6B696E675F4C4544732E84
:1009E000496E73657274284C45442C383829003D93
:1009F0003D0074727565002E2E2F54657374585423
:100A000061626C652E63707000626C696E6B696EFA
:100A1000675F4C4544732E496E73657274284C456C
:100A20004429003D3D0074727565002E2E2F5465DB
:100A30007374585461626C652E63707000626C69E7
:100A40006E6B696E675F4C4544732E496E736572B9
:100A500074284C454429003D3D0074727565002E94
:100A60002E2F54657374585461626C652E637070D8
:100A700000626C696E6B696E675F4C4544732E5300
:100A8000656C65637428293D3D5F5F6E756C6C0015
:100A90003D3D0074727565002E2E2F546573745899
:100AA0005461626C652E63707000626C696E6B6974
:100AB0006E675F4C4544732E44656C6574652829E8
:100AC000003D3D0074727565002E2E2F54657374C1
:100AD000585461626C652E63707000626C696E6B55
:100AE000696E675F4C4544732E53656C656374286B
:100AF000293D3D5F5F6E756C6C003D3D0066616C2D
:100B00007365002E2E2F54657374585461626C65A2
:100B10002E63707000626C696E6B696E675F4C4526
:100B200044732E496E73657274284C454429003D08
:100B30003D0074727565002E2E2F546573745854E1
:100B400061626C652E63707000626C696E6B696EB9
:100B5000675F4C4544732E53656C65637428293D6B
:100B60003D5F5F6E756C6C003D3D00747275650095
:100B70002E2E2F54657374585461626C652E637009
:100B800070004C45442E70696E003D3D0069640064
:100B90002E2E2F54657374585461626C652E6370E9
:100BA00070004C45442E70696E003D3D00383800A1
:100BB0002E2E2F54657374585461626C652E6370C9
:100BC0007000626C696E6B696E675F4C4544732E92
:100BD000557064617465284C454429003D3D00749E
:100BE000727565002E2E2F54657374585461626CB3
:100BF000652E637070004C45442E70696E003D3D5B
:100C0000006964002E2E2F54657374585461626C11
:100C1000652E637070004C45442E70696E003D3D3A
:100C2000003838002E2E2F54657374585461626C4E
:100C3000652E63707000626C696E6B696E675F4CE5
:100C40004544732E557064617465284C45442900F1
:100C50003D3D0074727565002E2E2F5465737458D7
:100C60005461626C652E637070004C45442E70694F
:100C70006E003D3D0031002E2E2F54657374585484
:100C800061626C652E63707000626C696E6B696E78
:100C9000675F4C4544732E496E73657274284C45EA
:100CA0004429003D3D0074727565002C206C696E0E
:100CB000652000292C2066696C6520003D002028F5
:100CC000002920003D003A2028006661696C6564B7
:100CD0000070617373656400417373657274696F4A
:100CE0006E20002E2E2F54657374585461626C650B
:100CF0002E637070004C45442E70696E003D3D00BF
:100D00006964002E2E2F54657374585461626C65AB
:100D10002E63707000626C696E6B696E675F4C4524
:100D200044732E53656C6563742831293D3D5F5FC4
:100D30006E756C6C003D3D0074727565002E2E2F33
:100D400054657374585461626C652E637070004C06
:100D500045442E70696E003D3D003838002E2E2F20
:100D600054657374585461626C652E6370700062D0
:100D70006C696E6B696E675F4C4544732E496E7388
:100D8000657274284C454429003D3D0074727565B8
:100D9000002E2E2F54657374585461626C652E6357
:100DA000707000626C696E6B696E675F4C4544736E
:100DB0002E47657449642829003D3D0069642A3145
:100DC00030002E2E2F54657374585461626C652E5A
:100DD00063707000626C696E6B696E675F4C45444E
:100DE000732E496E73657274284C45442C69642ACD
:100DF000313029003D3D0074727565002E2E2F5450
:100E0000657374585461626C652E63707000626C17
:100E1000696E6B696E675F4C4544732E4765744914
:100E2000642829003D3D003838002E2E2F5465736C
:100E300074585461626C652E63707000626C696EE8
:100E40006B696E675F4C4544732E496E73657274AF
:100E5000284C45442C383829003D3D007472756596
:100E6000002E2E2F54657374585461626C652E6386
:100E7000707000626C696E6B696E675F4C4544739D
:100E80002E47657449642829003D3D0030002E2E10
:100E90002F54657374585461626C652E63707000D2
:100EA000626C696E6B696E675F4C4544732E496E68
:100EB00073657274284C454429003D3D0074727579
:100EC00065002E2E2F54657374585461626C652E24
:100ED00063707000626C696E6B696E675F4C45444D
:100EE000732E47657449642829003D3D0030002E6B
:100EF0002E2F54657374585461626C652E63707044
:100F000000626C696E6B696E675F4C4544732E4975
:100F10006E73657274284C454429003D3D0074721F
:100F20007565002E2E2F54657374585461626C657C
:100F30002E63707000626C696E6B696E675F4C4502
:100F400044732E436F756E7465722829003D3D0011
:100F500031002E2E2F54657374585461626C652EC7
:100F600063707000626C696E6B696E675F4C4544BC
:100F7000732E496E73657274284C454429003D3DBB
:100F80000074727565002C206C696E652000292C38
:100F90002066696C6520003D002028002920003D66
:100FA000003A2028006661696C65640070617373A3
:100FB000656400417373657274696F6E20002E2E34
:100FC0002F54657374585461626C652E63707000A1
:100FD000626C696E6B696E675F4C4544732E436F3C
:100FE000756E7465722829003D3D0030002E2E2F4D
:100FF00054657374585461626C652E63707000623E
:101000006C696E6B696E675F4C4544732E436F75F8
:101010006E7465722829003D3D003130002E2E2F60
:1010200054657374585461626C652E63707000620D
:101030006C696E6B696E675F4C4544732E496E73C5
:10104000657274284C454429003D3D0074727565F5
:10105000002C206C696E652000292C2066696C6567
:1010600020003D002028002920003D003A202800D3
:101070006661696C656400706173736564004173D7
:1010800073657274696F6E20002E2E2F5465737411
:10109000585461626C652E63707000626C696E6B8F
:1010A000696E675F4C4544732E496E736572742890
:1010B0004C454429003D3D007472756500207465FF
:1010C00073742873292E0020736B69707065642C0B
:1010D000206F7574206F662000206661696C6564FE
:1010E0002C20616E642000207061737365642C2075
:1010F00000546573742073756D6D6172793A2000C8
:10110000206661696C65642E00207061737365648C
:101110002E0020736B69707065642E0054657374C3
:101120002000C81F1927C82011241FBECFEFD8E008
:10113000DEBFCDBF13E0A0E0B1E0E2E3F6E502C020
:1011400005900D92A637B107D9F725E0A6E7B3E0E1
:1011500001C01D92AF31B207E1F711E1C6E2D1E162
:1011600004C02297FE010E94BA29C232D107C9F7F2
:101170000E940C0A0C940C2B0C940000FC0181E0E2
:101180002081FB019081291380E00895FC0181E01A
:1011900040815181FB01208131814217530709F0C1
:1011A00080E00895FC0181E02081FB0190812913FA
:1011B00080E008952CE433E0FC01318320830C941B
:1011C0008C242CE233E0FC01318320830C94DA0878
:1011D0002EE133E0FC01318320830C94DA0820E116
:1011E00033E0FC01318320830C94DA0822E033E001
:1011F000FC01318320830C94DA0824EF32E0FC01F7
:10120000318320830C94DA0826EE32E0FC0131832E
:1012100020830C94DA0828ED32E0FC01318320832E
:101220000C94DA082AEC32E0FC01318320830C9420
:10123000DA082CEB32E0FC01318320830C94DA08CD
:101240002EEA32E0FC01318320830C94DA0820EA94
:1012500032E0FC01318320830C94DA0822E932E089
:10126000FC01318320830C94DA0824E832E0FC018D
:10127000318320830C94DA0826E732E0FC013183C5
:1012800020830C94DA0828E632E0FC0131832083C5
:101290000C94DA082AE532E0FC01318320830C94B7
:1012A000DA082CE432E0FC01318320830C94DA0864
:1012B000CF93DF93EC010E94DA08CE01DF91CF914A
:1012C0000C94C328CF93DF93EC010E94E108CE0178
:1012D000DF91CF910C94C328CF93DF93EC010E9450
:1012E000E808CE01DF91CF910C94C328CF93DF9310
:1012F000EC010E94EF08CE01DF91CF910C94C3283E
:10130000CF93DF93EC010E94F608CE01DF91CF91DD
:101310000C94C328CF93DF93EC010E94FD08CE010B
:10132000DF91CF910C94C328CF93DF93EC010E94FF
:101330000409CE01DF91CF910C94C328CF93DF93A2
:10134000EC010E940B09CE01DF91CF910C94C328D0
:10135000CF93DF93EC010E941209CE01DF91CF9170
:101360000C94C328CF93DF93EC010E941909CE019E
:10137000DF91CF910C94C328CF93DF93EC010E94AF
:101380002009CE01DF91CF910C94C328CF93DF9336
:10139000EC010E942709CE01DF91CF910C94C32864
:1013A000CF93DF93EC010E942E09CE01DF91CF9104
:1013B0000C94C328CF93DF93EC010E943509CE0132
:1013C000DF91CF910C94C328CF93DF93EC010E945F
:1013D0003C09CE01DF91CF910C94C328CF93DF93CA
:1013E000EC010E944309CE01DF91CF910C94C328F8
:1013F000CF93DF93EC010E944A09CE01DF91CF9198
:101400000C94C328CF93DF93EC010E945109CE01C5
:10141000DF91CF910C94C3280E945A2926E040E026
:1014200052EC61E070E085E794E00E945F2662E3A1
:1014300070E080E090E00E94322921E02093640473
:101440008AE090E0A0E0B0E08093650490936604A9
:10145000A0936704B0936804209363046AE071E08A
:1014600085E794E00E94E82710920801C0E0D0E0F0
:101470008AE090E00E94C12890935604809355041E
:1014800020915704309158042115310519F0FC01C1
:101490003187208790935804809357042196809138
:1014A000550490915604892B21F0CE31D10501F7D6
:1014B00003C06E9709F06DC08EE190E090934D04EB
:1014C00080934C0488E090E00E94C12890934504EA
:1014D0008093440484E291E00E94592586E291E0E1
:1014E0000E9439258CE291E00E94392583E391E046
:1014F0000E94392581E491E00E9439258AE491E037
:101500000E9439258DE591E00E94392584E691E01D
:101510000E94392587E791E00E9439258EE791E006
:101520000E9439258FE891E00E94392586E991E0F3
:101530000E9439258CE991E00E94392583EA91E0E7
:101540000E94392584EB91E00E9439258EEB91E0D1
:101550000E94392586EC91E00E9439258AEC91E0C1
:101560000E9439258FEC91E00E9439258BED91E0A6
:101570000E94392587EE91E00E94392583EF91E0A2
:101580000E94392588E092E00E9439250E94F224C9
:10159000FDCF6FE172E085E794E00E94BF2764E62B
:1015A00070E080E090E00E94322980E090E00E94AC
:1015B0000C2BFC0185859685009779F41686158697
:1015C000108A1786128A118A148A138A1782168241
:1015D0001186108681E084870895948B838BA3897C
:1015E000B489109759F318968D919C911997928B05
:1015F000818B2589368919963C932E931897B68B43
:10160000A58BEBCFCF93DF9300D000D000D0CDB728
:10161000DEB729833A834B835C836D837E83DC0151
:101620005596ED91FC915697309709F462C0549607
:10163000FC93EE9353972085318556963C932E93D9
:10164000559721E02783168253960D90BC91A02DCB
:1016500026E0FE01319601900D922A95E1F7DC011A
:101660005396ED91FC915497118610861D962D91FD
:101670003C911E97232B09F1DC0151964D915C9111
:101680005297DA0118962D913C9119972115310541
:1016900031F0DC0152963C932E935197EDCF199681
:1016A000FC93EE93189716962C912F5F2683FC01DE
:1016B00023893489328B218B0DC0DC011E96FC936B
:1016C000EE931D975096FC93EE931F975296FC93C2
:1016D000EE935197FC01268137812F5F3F4F37836F
:1016E0002683208531852F5F3F4F3187208781E01A
:1016F00001C080E026960FB6F894DEBF0FBECDBFC6
:10170000DF91CF9108954F925F926F927F928F9267
:101710009F92AF92BF92CF92DF92EF92FF920F9380
:101720001F93CF93DF934C013B012A01E901B501DF
:10173000C901F7010995F82E8111ABC080917104A0
:1017400090917204009711F00E94EE24809109019B
:1017500084FFB0C08091080184FF0DC06EE770E186
:1017600080910601909107010E949A27FF2071F055
:1017700067E770E10DC0E0917104F0917204309759
:1017800009F498C0838584FDE9CF94C060E770E1D7
:1017900080910601909107010E949A276CE670E102
:1017A00080910601909107010E949A27B2018091D1
:1017B0000601909107010E949A276AE670E18091E4
:1017C0000601909107010E949A27688170E04AE023
:1017D00050E080910601909107010E949D2867E6E4
:1017E00070E180910601909107010E949A27B8014B
:1017F00080910601909107010E949A2764E670E1AA
:1018000080910601909107010E949A27B60180916C
:101810000601909107010E949A2762E670E180918B
:101820000601909107010E949A27F501608170E0FE
:101830004AE050E080910601909107010E949D28A6
:1018400069E570E180910601909107010E949A2755
:10185000B40180910601909107010E949A2761E5E9
:1018600070E180910601909107010E949A274AE059
:1018700050E0B30180910601909107010E94B928C0
:1018800066E472E080910601909107010E94E827CA
:1018900011C08091090185FF0DC08091080185FD6F
:1018A0005DCFE0917104F0917204309719F0838557
:1018B00085FD54CF8F2DDF91CF911F910F91FF9018
:1018C000EF90DF90CF90BF90AF909F908F907F90E0
:1018D0006F905F904F9008958F929F92AF92BF92BA
:1018E000CF92DF92EF92FF920F931F93CF93DF93EC
:1018F00000D0CDB7DEB782E494E00E94D90A912CE3
:1019000088248394909263048982292D3091640401
:101910004091650450916604609167047091680479
:1019200082E494E00E94020B8A83CE0101965C015E
:1019300088EBC82E80E1D82E9EEBE92E98E0F92E98
:1019400005EB10E19E012E5F3F4F4BE950E167E44C
:1019500070E089E890E10E94830B882321F0939442
:101960009AE09912CFCF0F900F90DF91CF911F91F6
:101970000F91FF90EF90DF90CF90BF90AF909F902E
:101980008F900895AF92BF92CF92DF92EF92FF9225
:101990000F931F93CF93DF9300D0CDB7DEB782E4D0
:1019A00094E00E94D90A81E0898321E08091530468
:1019B00090915404892B09F020E02A83CE010196EE
:1019C0005C01FBE6CF2EFBE0DF2EAEEBEA2EA8E0BB
:1019D000FA2E08E61BE09E012E5F3F4F49E45BE0D4
:1019E00064ED70E087E39BE00E94830B882309F499
:1019F000E5C081E08A8320916304309164044091C2
:101A0000650450916604609167047091680482E4F3
:101A100094E00E94020B8983CE0102965C01E2E30E
:101A2000CE2EEBE0DE2E0FE21BE09E012F5F3F4F3C
:101A300045E15BE066ED70E083E09BE00E94830B94
:101A4000882309F4BBC01A8221E08091530490914D
:101A50005404892B09F020E02983CE0102965C0111
:101A60006DEFC62E6AE0D62E7EEBE72E78E0F72EDD
:101A70000AEF1AE09E012F5F3F4F4BED5AE067EDF2
:101A800070E089EC9AE00E94830B882309F496C0E9
:101A900091E09A83E0915304F0915404309709F453
:101AA0004EC0208531852115310569F4109250040E
:101AB00010924F0410925204109251041092560446
:101AC000109255040EC0A0915104B0915204199681
:101AD0003C932E931897208531853093560420939C
:101AE00055049781992351F020914A0430914B0479
:101AF0002150310930934B0420934A04209155041E
:101B000030915604F0935604E093550440915704E5
:101B10005091580451874087F0935804E09357043C
:101B20003093540420935304209148043091490485
:101B300021503109309349042093480401C080E0CA
:101B40008983CE0102965C0144ECC42E4AE0D42E77
:101B50005EEBE52E58E0F52E01EC1AE09E012F5FBA
:101B60003F4F4AEA5AE069ED70E088E99AE00E9446
:101B7000830B882319F181E08A8321E0809153044B
:101B800090915404892B09F020E02983CE0102961C
:101B90005C0123E9C22E2AE0D22E3EEBE32E38E090
:101BA000F32E00E91AE09E012F5F3F4F41E75AE014
:101BB0006AED70E08FE59AE00E94830B0F900F9022
:101BC000DF91CF911F910F91FF90EF90DF90CF9019
:101BD000BF90AF900895FC018485882319F0868119
:101BE000978108958085918508954F925F926F92B5
:101BF0007F928F929F92AF92BF92CF92DF92EF929D
:101C0000FF920F931F93CF93DF934C013B012A0167
:101C1000E901B501C901F7010995F82E8111ABC0A1
:101C20008091710490917204009711F00E94EE244B
:101C30008091090184FFB0C08091080184FF0DC02C
:101C400063EB7FE080910601909107010E949A2743
:101C5000FF2071F06CEA7FE00DC0E0917104F0911B
:101C60007204309709F498C0838584FDE9CF94C04D
:101C700065EA7FE080910601909107010E949A2712
:101C800061EA7FE080910601909107010E949A2706
:101C9000B20180910601909107010E949A276FE995
:101CA0007FE080910601909107010E949A27688148
:101CB00079814AE050E080910601909107010E94ED
:101CC0009D286CE97FE080910601909107010E94B8
:101CD0009A27B80180910601909107010E949A27E6
:101CE00069E97FE080910601909107010E949A279F
:101CF000B60180910601909107010E949A2767E939
:101D00007FE080910601909107010E949A27F501DA
:101D1000608171814AE050E0809106019091070155
:101D20000E949D286EE87FE0809106019091070156
:101D30000E949A27B40180910601909107010E94A8
:101D40009A2766E87FE080910601909107010E9442
:101D50009A274AE050E0B301809106019091070173
:101D60000E94B92866E472E0809106019091070113
:101D70000E94E82711C08091090185FF0DC0809164
:101D8000080185FD5DCFE0917104F09172043097F8
:101D900019F0838585FD54CF8F2DDF91CF911F9151
:101DA0000F91FF90EF90DF90CF90BF90AF909F90FA
:101DB0008F907F906F905F904F900895AF92BF92F9
:101DC000CF92DF92EF92FF920F931F93CF93DF9307
:101DD00000D000D0CDB7DEB782E494E00E94D90AEB
:101DE0001A82198282E494E00E94EB0D9C838B831B
:101DF000CE0101965C011DE9C12E13E0D12E06EC47
:101E0000E02E08E0F02E0AE913E09E012D5F3F4F1F
:101E100042E853E067E571E080E793E00E94F50D4A
:101E2000882301F10E946C0C8AE090E09C838B83F4
:101E300082E494E00E94EB0D9A838983CE0103969D
:101E40005C01BDE6CB2EB3E0DB2E0AE613E09E017B
:101E50002F5F3F4F42E553E06BE571E080E493E094
:101E60000E94F50D0F900F900F900F90DF91CF9182
:101E70001F910F91FF90EF90DF90CF90BF90AF90A8
:101E800008957F928F929F92AF92BF92CF92DF92EE
:101E9000EF92FF920F931F93CF93DF9300D000D068
:101EA000CDB7DEB782E494E00E94D90A5AE0852ECD
:101EB000912C772473947982209163043091640487
:101EC00040916504509166046091670470916804C4
:101ED00082E494E00E94020B8B83CE0101965C01A8
:101EE0003CE4C32E30E1D32E4EEBE42E48E0F42E3A
:101EF00009E410E19E012D5F3F4F4FE250E161E5A3
:101F000070E08DE190E10E94830B882309F445C0C5
:101F100091E0891A910879F68AE090E09C838B839E
:101F200082E494E00E94EB0D9A838983CE010396AC
:101F30005C019AE1C92E90E1D92E26ECE22E28E030
:101F4000F22E07E110E19E012F5F3F4F4FEF5FE060
:101F500063E570E08DEE9FE00E94F50D8823E9F0C7
:101F600082E494E00E94D90A1C821B8282E494E0FD
:101F70000E94EB0D9A8389838BEEC82E8FE0D82EBA
:101F800008EE1FE09E012F5F3F4F40ED5FE067E5E9
:101F900070E08EEB9FE00E94F50D0F900F900F9078
:101FA0000F90DF91CF911F910F91FF90EF90DF90F5
:101FB000CF90BF90AF909F908F907F900895AF92F9
:101FC000BF92CF92DF92EF92FF920F931F93CF9326
:101FD000DF9300D000D0CDB7DEB782E494E00E945A
:101FE000D90A81E08983209163043091640440918F
:101FF000650450916604609167047091680482E4FE
:1020000094E00E94020B8B83CE0101965C01E1E813
:10201000CE2EEFE0DE2EFEEBEF2EF8E0FF2E0EE7E9
:102020001FE09E012D5F3F4F44E65FE06EE570E0EC
:1020300082E59FE00E94830B882311F181E090E00C
:102040009C838B8382E494E00E94EB0D9A838983C6
:10205000CE0103965C0160E5C62E6FE0D62E76ECCD
:10206000E72E78E0F72E0DE41FE09E012F5F3F4F33
:1020700045E35FE06FE570E083E29FE00E94F50DCD
:102080000F900F900F900F90DF91CF911F910F91B4
:10209000FF90EF90DF90CF90BF90AF900895AF92F8
:1020A000BF92CF92DF92EF92FF920F931F93CF9345
:1020B000DF9300D000D0CDB7DEB782E494E00E9479
:1020C000D90A88E58093630481E0898328E530910B
:1020D00064044091650450916604609167047091B6
:1020E000680482E494E00E94020B8B83CE01019687
:1020F0005C011CE8C12E1DE0D12E0EEBE02E08E0A5
:10210000F02E09E81DE09E012D5F3F4F4FE65DE098
:102110006DE870E08DE59DE00E94830B882371F1EE
:1021200010926304E0915304F091540486E0A3E616
:10213000B4E001900D928A95E1F788E590E09C83E8
:102140008B838091630490E09A838983CE01039608
:102150005C01AAE5CA2EADE0DA2EB6ECEB2EB8E0B3
:10216000FB2E07E51DE09E012F5F3F4F4FE45DE032
:1021700061E970E08DE39DE00E94F50D0F900F90F6
:102180000F900F90DF91CF911F910F91FF90EF90E3
:10219000DF90CF90BF90AF9008959F92AF92BF9283
:1021A000CF92DF92EF92FF920F931F93CF93DF9323
:1021B000CDB7DEB72A970FB6F894DEBF0FBECDBFFE
:1021C000992493949092630482E494E00E94D90A43
:1021D0009982209163043091640440916504509188
:1021E0006604609167047091680482E494E00E9440
:1021F000020B8F83CE0101965C0166EAC62E6CE06D
:10220000D62E7EEBE72E78E0F72E03EA1CE09E0147
:10221000295F3F4F49E85CE069EA70E087E79CE0AE
:102220000E94830B882309F493C0E0915304F0913A
:10223000540486E0A3E6B4E001900D928A95E1F79C
:1022400081E090E098878F838091630490E09A8387
:102250008983CE0107965C0145E7C42E4CE0D42E5D
:1022600056ECE52E58E0F52E02E71CE09E012F5FAC
:102270003F4F4AE65CE06CEA70E088E59CE00E9433
:10228000F50D882309F464C098E59093630499865A
:10229000209153043091540496E0E3E6F4E0DE012B
:1022A000119601900D929A95E1F72115310549F0AB
:1022B00096E0FE013196D90101900D929A95E1F7D1
:1022C00001C080E08F83CE0109965C0123E5C22E18
:1022D0002CE0D22E3EEBE32E38E0F32E00E51CE09E
:1022E0009E01295F3F4F46E35CE06FEA70E084E2C5
:1022F0009CE00E94830B882359F110926304E091C3
:102300005304F091540486E0A3E6B4E001900D92EA
:102310008A95E1F788E590E09A8789878091630440
:1023200090E098878F8381E2C82E8CE0D82E96ECBF
:10233000E92E98E0F92E0EE11CE09E01295F3F4F47
:1023400046E15CE063EB70E084E09CE00E94F50D08
:102350002A960FB6F894DEBF0FBECDBFDF91CF91A6
:102360001F910F91FF90EF90DF90CF90BF90AF90B3
:102370009F9008950F93CF93DF9300D000D000D0AB
:10238000CDB7DEB729833A834B835C836D837E832D
:10239000DC015596ED91FC915697309709F497C062
:1023A0005496FC93EE9353972085318556963C9333
:1023B0002E93559721E02783068353960D90BC9169
:1023C000A02D26E0FE01319601900D922A95E1F7AD
:1023D000DC015396ED91FC915497118610861D9661
:1023E0004D915C911E974115510509F45BC0DA01CE
:1023F00016962C91021740F451874087DC011E96F7
:10240000FC93EE931D9765C0DC0150965C934E9350
:102410001F97DA0118962D913C911997DC0152967D
:102420003C932E935197DC011F962D913C91509730
:10243000D90116964C91DC0151966D917C91529781
:10244000401748F4DB0116964C91041720F46115EF
:10245000710581F41CC0DB0116964C914017B9F34D
:1024600061157105A1F3DC0150967C936E931F9763
:10247000DB01D0CFDB0116964C914017E9F0D90172
:102480001996FC93EE9318977187608705C0D90160
:102490001996FC93EE931897DC015296FC93EE93F9
:1024A000519717C0DC011E96FC93EE931D97509632
:1024B000FC93EE931F97F1CFDC0155962D913C9143
:1024C0005697318720875696FC93EE93559780E078
:1024D0000EC0FC01268137812F5F3F4F3783268353
:1024E000208531852F5F3F4F3187208781E02696F9
:1024F0000FB6F894DEBF0FBECDBFDF91CF910F9125
:102500000895AF92BF92CF92DF92EF92FF920F9316
:102510001F93CF93DF9300D000D0CDB7DEB782E416
:1025200094E00E94D90A81E089832091630430916C
:102530006404409165045091660460916704709151
:10254000680482E494E00E94020B8B83CE01019622
:102550005C018DEBC82E8EE0D82E9EEBE92E98E024
:10256000F92E0AEB1EE09E012D5F3F4F40EA5EE030
:102570006FE670E08EE89EE00E94830B882309F4EA
:102580007CC01C821B82E0915304F091540430976C
:1025900011F0868101C080E090E09A838983CE01AA
:1025A00003965C011CE8C12E1EE0D12E06ECE02E45
:1025B00008E0F02E09E81EE09E012F5F3F4F43E741
:1025C0005EE060E770E081E69EE00E94F50D882302
:1025D00009F453C081E08B8308E5209163043091B6
:1025E00064044091650450916604609167047091A1
:1025F000680482E494E00E94BA118983ACE5CA2E93
:10260000AEE0DA2EBEEBEB2EB8E0FB2E09E51EE0C5
:102610009E012F5F3F4F4CE35EE062E770E08AE28D
:102620009EE00E94830B882341F188E590E09C8323
:102630008B83E0915304F0915404309711F086811C
:1026400001C080E090E09A838983CE0103965C010B
:10265000E7E2CE2EEEE0DE2EF6ECEF2EF8E0FF2ED7
:1026600004E21EE09E012F5F3F4F4EE05EE063E715
:1026700070E08CEF9DE00E94F50D0F900F900F9091
:102680000F90DF91CF911F910F91FF90EF90DF900E
:10269000CF90BF90AF900895CF93DF93EC018D85DD
:1026A0009E85892BD9F0E989FA893097B9F0F88BA2
:1026B000EF870084F185E02DFA8BE98B8C85811101
:1026C00008C0309731F08781811103C0CE010E948C
:1026D0004C1381E029893A89232B09F480E0DF91AA
:1026E000CF910895FC01A585B685109761F0B28B56
:1026F000A18B8485811108C017968C91811104C02B
:10270000CF010C944C1380E00895AF92BF92CF920A
:10271000DF92EF92FF920F931F93CF93DF9300D03E
:1027200000D0CDB7DEB782E494E00E94D90A81E000
:102730008983209163043091640440916504509131
:102740006604609167047091680482E494E00E94DA
:10275000020B8B83CE0101965C014EE1C42E4FE04B
:10276000D42E5EEBE52E58E0F52E0BE11FE09E0126
:102770002D5F3F4F41E05FE066E670E08FEE9EE048
:102780000E94830B882351F182E494E00E9472132B
:102790001C821B82E0915304F0915404309711F095
:1027A000868101C080E090E09A838983CE01039600
:1027B0005C012DEEC22E2EE0D22E36ECE32E38E058
:1027C000F32E0AEE1EE09E012F5F3F4F44ED5EE0C8
:1027D00068E670E082EC9EE00E94F50D0F900F908D
:1027E0000F900F90DF91CF911F910F91FF90EF907D
:1027F000DF90CF90BF90AF9008958F929F92AF924D
:10280000BF92CF92DF92EF92FF920F931F93CF93DD
:10281000DF9300D000D0CDB7DEB782E494E00E9411
:10282000D90A912C882483948982092D20916304EC
:10283000309164044091650450916604609167048E
:102840007091680482E494E00E94BA118B83CE01F7
:1028500001965C01E7EFCE2EEDE0DE2EFEEBEF2ED3
:10286000F8E0FF2E04EF1DE09E012D5F3F4F44ED89
:102870005DE06DE770E082EC9DE00E94830B8823B1
:10288000F1F19AE0990E84E69812CECF82E494E0BA
:102890000E947213812C912C9C828B82E0915304B4
:1028A000F0915404309711F0868101C080E090E0EF
:1028B0009A838983CE0103965C016CEBC62E6DE092
:1028C000D62E76ECE72E78E0F72E09EB1DE09E0180
:1028D0002F5F3F4F43EA5DE063E870E081E99DE0F0
:1028E0000E94F50D882359F082E494E00E944C1375
:1028F0009AE0890E911C84E68816910469F60F907F
:102900000F900F900F90DF91CF911F910F91FF903B
:10291000EF90DF90CF90BF90AF909F908F900895F1
:102920009F92AF92BF92CF92DF92EF92FF920F935E
:102930001F93CF93DF9300D000D0CDB7DEB782E4F2
:1029400094E00E94D90A9924939499822091630477
:10295000309164044091650450916604609167046D
:102960007091680482E494E00E94020B8B83CE0194
:1029700001965C01AAE5CA2EAAE0DA2EBEEBEB2E88
:10298000B8E0FB2E07E51AE09E012D5F3F4F4DE3B7
:102990005AE061EE70E08BE29AE00E94830B88239C
:1029A00009F4D4C19B822091630430916404409166
:1029B000650450916604609167047091680482E434
:1029C00094E00E94020B8983CE0103965C01F6E23B
:1029D000CF2EFAE0DF2E03E21AE09E012F5F3F4F79
:1029E00049E05AE062EE70E087EF99E00E94830BC5
:1029F000882309F4ABC19B8208E5209163043091E0
:102A0000640440916504509166046091670470917C
:102A1000680482E494E00E94BA118983E2EFCE2E2A
:102A2000E9E0DE2E0FEE19E09E012F5F3F4F42EDF1
:102A300059E063EE70E080EC99E00E94830B8823FC
:102A400009F484C19B8208E02091630430916404FE
:102A50004091650450916604609167047091680428
:102A600082E494E00E94BA1189837BEBC72E79E05F
:102A7000D72E08EB19E09E012F5F3F4F4CE959E03C
:102A800064EE70E08AE899E00E94830B882309F4E1
:102A90005DC19B8220916304309164044091650480
:102AA00050916604609167047091680482E494E038
:102AB0000E94020B898365E8C62E69E0D62E02E8E3
:102AC00019E09E012F5F3F4F48E659E065EE70E048
:102AD00086E599E00E94830B882309F437C1209191
:102AE00063043091640440916504509166046091E0
:102AF00067047091680482E494E00E94020B2091C4
:102B000063043091640440916504509166046091BF
:102B100067047091680482E494E00E94020B08E567
:102B200020916304309164044091650450916604DF
:102B3000609167047091680482E494E00E94BA1185
:102B400008E0209163043091640440916504509141
:102B50006604609167047091680482E494E00E94C6
:102B6000BA1120916304309164044091650450913E
:102B70006604609167047091680482E494E00E94A6
:102B8000020B82E494E00E9472131C821B82E0918B
:102B90005304F0915404309711F0868101C080E015
:102BA00090E09A838983CE0103965C0144E5C42EAC
:102BB00049E0D42E56ECE52E58E0F52E01E519E05B
:102BC0009E012F5F3F4F4BE359E06EEE70E089E2CC
:102BD00099E00E94F50D882309F4B8C082E494E0DE
:102BE0000E944C1381E090E09C838B83E09153041E
:102BF000F0915404309711F0868101C080E090E09C
:102C00009A838983CE0103965C0127E2C22E29E0D4
:102C1000D22E36ECE32E38E0F32E04E219E09E01CA
:102C20002F5F3F4F4EE059E061EF70E08CEF98E08E
:102C30000E94F50D882309F489C082E494E00E9483
:102C40004C1388E090E09C838B83E0915304F091D7
:102C50005404309711F0868101C080E090E09A839F
:102C60008983CE0103965C018AEFC82E88E0D82EB6
:102C700096ECE92E98E0F92E07EF18E09E012F5F01
:102C80003F4F41EE58E064EF70E08FEC98E00E9417
:102C9000F50D882309F45AC082E494E00E944C1395
:102CA00088E590E09C838B83E0915304F091540479
:102CB000309711F0868101C080E090E09A8389838B
:102CC000CE0103965C011CECC12E18E0D12E06EC5F
:102CD000E02E08E0F02E09EC18E09E012F5F3F4F38
:102CE00043EB58E067EF70E081EA98E00E94F50D51
:102CF000882361F182E494E00E944C1389E590E01E
:102D00009C838B83E0915304F0915404309711F02D
:102D1000868101C080E090E09A838983CE0103968A
:102D20005C01AEE9CA2EA8E0DA2EB6ECEB2EB8E0D4
:102D3000FB2E0BE918E09E012F5F3F4F45E858E05E
:102D40006AEF70E083E798E00E94F50D0F900F9016
:102D50000F900F90DF91CF911F910F91FF90EF9007
:102D6000DF90CF90BF90AF909F9008950F931F93E7
:102D7000CF93DF931F92CDB7DEB78C01FC01858521
:102D80009685928B818BF80181899289FC0126813D
:102D9000261741F0009731F0C80169830E944C1357
:102DA0006981F1CF0F90DF91CF911F910F9108951D
:102DB0004F925F926F927F928F929F92AF92BF924B
:102DC000CF92DF92EF92FF920F931F93CF93DF93F7
:102DD0002C014B013A01E901B501C901F70109953F
:102DE000F82E8111A9C0809171049091720400970E
:102DF00011F00E94EE248091090184FFAEC0809101
:102E0000080184FF0DC068ED7CE08091060190917F
:102E100007010E949A27FF2071F061ED7CE00DC050
:102E2000E0917104F0917204309709F496C08385A3
:102E300084FDE9CF92C06AEC7CE08091060190911C
:102E400007010E949A2766EC7CE080910601909130
:102E500007010E949A27B301809106019091070112
:102E60000E949A2764EC7CE0809106019091070112
:102E70000E949A274AE050E0688180910601909173
:102E800007010E94B22861EC7CE0809106019091DC
:102E900007010E949A27B8018091060190910701CD
:102EA0000E949A276EEB7CE08091060190910701C9
:102EB0000E949A27B60180910601909107010E9415
:102EC0009A276CEB7CE080910601909107010E94AB
:102ED0009A274AE050E0F5016081809106019091C7
:102EE00007010E94B22863EB7CE08091060190917B
:102EF00007010E949A27B201809106019091070173
:102F00000E949A276BEA7CE080910601909107016C
:102F10000E949A274AE050E0B40180910601909106
:102F200007010E94B92866E472E080910601909141
:102F300007010E94E82711C08091090185FF0DC09B
:102F40008091080185FD5FCFE0917104F0917204DA
:102F5000309719F0838585FD56CF8F2DDF91CF9166
:102F60001F910F91FF90EF90DF90CF90BF90AF90A7
:102F70009F908F907F906F905F904F9008959F9259
:102F8000AF92BF92CF92DF92EF92FF920F931F9377
:102F9000CF93DF9300D0CDB7DEB782E494E00E94F8
:102FA000D90A81E0898361E082E494E00E94B61648
:102FB00021E0892B09F020E02A83CE0101965C01F3
:102FC00098E3C92E9DE0D92E2EEBE22E28E0F22EBA
:102FD00005E31DE09E012E5F3F4F45E15DE069E99D
:102FE00070E083E09DE00E94830B882391F10E94B2
:102FF0006C0C89E0898386E0982E6981662349F10B
:1030000082E494E00E94B616FC01A3E6B4E0892DA8
:1030100001900D928A95E1F7CE0101965C0110E0D6
:10302000C12E1DE0D12E02EDE02E08E0F02E0DEFB6
:103030001CE023E634E045EF5CE06FE970E083EEEE
:103040009CE00E94D816882321F0898181508983D1
:10305000D4CF0F900F90DF91CF911F910F91FF90E0
:10306000EF90DF90CF90BF90AF909F9008957F92A8
:103070008F929F92AF92BF92CF92DF92EF92FF9288
:103080000F931F93CF93DF93CDB7DEB72B970FB678
:10309000F894DEBF0FBECDBF0E946C0C89E08B8719
:1030A00006E0902E6B85662351F182E494E00E9445
:1030B000B616FC01A3E6B4E0892D01900D928A9525
:1030C000E1F7CE010B965C01B1E0CB2EBCE0DB2E2C
:1030D00012EDE12E18E0F12E0EEF1BE023E634E0B6
:1030E00046EF5BE06FEB70E084EE9BE00E94D81649
:1030F000882309F49BC08B8581508B87D3CF88E5CB
:103100008093630465E082E494E00E94B61681E057
:103110008F83809153049091540426E0E3E6F4E019
:10312000DE01119601900D922A95E1F7009751F07A
:1031300026E0FE013196DC0101900D922A95E1F71F
:1031400081E001C080E08987CE0107965C01FFED38
:10315000CF2EFBE0DF2EAEEBEA2EA8E0FA2E0CED30
:103160001BE09E01275F3F4F42EC5BE064EC70E0A8
:1031700080EB9BE00E94830B882309F457C089E011
:103180008B8776E0772EE8E58E2E912C6B85662373
:1031900009F44CC082E494E00E94B616FC01A3E658
:1031A000B4E0872D01900D928A95E1F78B858530EB
:1031B00001F598868F828091630490E09A878987D1
:1031C000CE0107965C015DEAC52E5BE0D52E66EC6C
:1031D000E62E68E0F62E0AEA1BE09E01275F3F4FCD
:1031E00042EA5BE06BEC70E080E99BE00E94F50D49
:1031F00017C0CE010B965C013DE8C32E3BE0D32EF9
:1032000042EDE42E48E0F42E0AE81BE023E634E029
:1032100042E85BE06DEC70E080E79BE00E94D8162E
:10322000882321F08B8581508B87B0CF2B960FB6EA
:10323000F894DEBF0FBECDBFDF91CF911F910F91EC
:10324000FF90EF90DF90CF90BF90AF909F908F90C6
:103250007F9008959F92AF92BF92CF92DF92EF92AC
:10326000FF920F931F93CF93DF9300D0CDB7DEB7BC
:103270000E946C0C81E0898382E494E00E947213C6
:103280008A83CE0101965C012AE6C22E21E0D22E6D
:103290003EEBE32E38E0F32E07E611E09E012E5FB1
:1032A0003F4F43E551E068E871E081E491E00E941E
:1032B000830B882389F180E099249394980E8A8364
:1032C000E0915304F0915404309711F0868101C0CD
:1032D00080E08983CE0102965C018CE3C82E81E0F8
:1032E000D82E92EDE92E98E0F92E09E311E09E0127
:1032F0002F5F3F4F43E251E06CE871E081E191E0E4
:103300000E94D816882341F082E494E00E944C1376
:10331000882311F0892DD0CF0F900F90DF91CF919E
:103320001F910F91FF90EF90DF90CF90BF90AF90E3
:103330009F900895FC01A189B289109769F080855A
:103340009185662311F0019601C0019791878087CE
:1033500017966C9381E0089580E008959F92AF9254
:10336000BF92CF92DF92EF92FF920F931F93CF9372
:10337000DF9300D000D01F92CDB7DEB70E946C0C57
:1033800082E494E00E9472131D8246E0942E8D81A7
:103390008A3068F5E0915304F0915404A3E6B4E058
:1033A000892D01900D928A95E1F7CE0105965C0179
:1033B00026E1C22E27E0D22E32EDE32E38E0F32EA6
:1033C00003E117E023E634E04BE057E068E171E009
:1033D00089EF96E00E94D816882309F44EC182E452
:1033E00094E00E944C138D818F5F8D83D0CF81E05C
:1033F000898362E082E494E00E94B61621E0892B82
:1034000009F420E02B83CE0101965C0184EFC82EE5
:1034100086E0D82E9EEBE92E98E0F92E01EF16E01B
:103420009E012D5F3F4F41ED56E06CE171E08FEB67
:1034300096E00E94830B882309F41FC1992493947A
:10344000998260E082E494E00E949A198B830AEBEF
:10345000C02E06E0D02E07EB16E09E012D5F3F4FF9
:103460004BE956E06DE171E089E896E00E94830B3C
:10347000882309F402C1998268E082E494E00E9402
:10348000B61621E0892B09F420E02B83CE010196AA
:103490005C01B4E8CB2EB6E0DB2E1EEBE12E18E08B
:1034A000F12E01E816E09E012D5F3F4F41E656E008
:1034B0006FE171E08FE496E00E94830B882309F4AA
:1034C000DCC081E0898360E082E494E00E949A1984
:1034D0008B83AAE4CA2EA6E0DA2E07E416E09E014A
:1034E0002D5F3F4F4BE256E060E271E089E196E0EC
:1034F0000E94830B882309F4C0C08AE090E09A837D
:10350000898382E494E00E94EB0D9C838B83E6E147
:10351000CE2EE6E0DE2EF6ECEF2EF8E0FF2E03E1F5
:1035200016E09E012D5F3F4F4BEF55E062E271E0E8
:1035300089EE95E00E94F50D882309F49EC0109253
:103540004E0488E090E09A83898380914A049091A8
:103550004B049C838B8377EEC72E75E0D72E04EE49
:1035600015E09E012D5F3F4F4CEC55E064E271E0A9
:103570008AEB95E00E94F50D882309F47EC082E471
:1035800094E00E947213E0915304F091540486E099
:10359000A3E6B4E001900D928A95E1F71A821982B0
:1035A0008091630490E09C838B8368EBC62E65E07A
:1035B000D62E05EB15E09E012D5F3F4F4DEA55E0FD
:1035C00068E271E08BE995E00E94F50D882309F42B
:1035D00054C082E494E00E944C13E0915304F091B3
:1035E000540486E0A3E6B4E001900D928A95E1F7D9
:1035F00081E090E09A8389838091630490E09C83CA
:103600008B8359E9C52E55E0D52E06E915E09E01BC
:103610002D5F3F4F4EE855E06CE271E08CE795E09E
:103620000E94F50D882349F182E494E00E944C1336
:10363000E0915304F091540486E0A3E6B4E00190D5
:103640000D928A95E1F783E090E09A8389838091D7
:10365000630490E09C838B834AE7C42E45E0D42E1C
:1036600007E715E09E012D5F3F4F4FE655E060E311
:1036700071E08DE595E00E94F50D0F900F900F9091
:103680000F900F90DF91CF911F910F91FF90EF90CE
:10369000DF90CF90BF90AF909F9008957F928F92D0
:1036A0009F92AF92BF92CF92DF92EF92FF920F93D1
:1036B0001F93CF93DF9300D000D0CDB7DEB782E465
:1036C00094E00E94D90A772473947982209163044C
:1036D00030916404409165045091660460916704E0
:1036E0007091680482E494E00E94020B8B83CE0107
:1036F00001965C013EE6C32E38E0D32E4EEBE42E5D
:1037000048E0F42E0BE618E09E012D5F3F4F41E5A7
:1037100058E060E071E08FE398E00E94830B88231B
:1037200009F4CCC088248394912C9C828B8282E4FF
:1037300094E00E94EB0D9A838983CE0103965C018D
:103740009DE3C92E98E0D92E26ECE22E28E0F22E39
:103750000AE318E09E012F5F3F4F42E258E061E02C
:1037600071E080E198E00E94F50D882309F4A6C07D
:103770007B8260E082E494E00E949A1989831BE0D6
:10378000C12E18E0D12E0EEBE02E08E0F02E08E05E
:1037900018E09E012F5F3F4F4CEE57E063E071E071
:1037A0008AED97E00E94830B882309F487C010926A
:1037B0004E041C821B8280914A0490914B049A8390
:1037C0008983A8EDCA2EA7E0DA2EB6ECEB2EB8E07E
:1037D000FB2E05ED17E09E012F5F3F4F4DEB57E0AD
:1037E00065E071E08BEA97E00E94F50D882309F40B
:1037F00065C07B822091630430916404409165042C
:1038000050916604609167047091680482E494E0CA
:103810000E94020B8983E6EACE2EE7E0DE2EFEEB65
:10382000EF2EF8E0FF2E03EA17E09E012F5F3F4FD7
:1038300049E857E067E071E087E797E00E94830B73
:103840008823E1F19C828B8282E494E00E94EB0D5C
:103850009A83898365E7C62E67E0D62E76ECE72E3D
:1038600078E0F72E02E717E09E012F5F3F4F4AE511
:1038700057E068E071E088E497E00E94F50D882346
:10388000E9F070924E0482E090E09C838B838091FB
:103890004804909149049A83898356E4C52E57E0E1
:1038A000D52E03E417E09E012F5F3F4F4BE257E018
:1038B0006BE071E089E197E00E94F50D0F900F90A9
:1038C0000F900F90DF91CF911F910F91FF90EF908C
:1038D000DF90CF90BF90AF909F908F907F90089592
:1038E0008F929F92AF92BF92CF92DF92EF92FF9210
:1038F0000F931F93CF93DF9300D000D0CDB7DEB7E7
:1039000082E494E00E94D90A198282E494E00E9441
:1039100072138B83CE0101965C01FAE3CF2EF3E0A4
:10392000DF2EAEEBEA2EA8E0FA2E07E313E09E01AD
:103930002D5F3F4F43E253E064E671E081E193E0A5
:103940000E94830B882309F468C1EAE09E2E882434
:1039500083948B82209163043091640440916504C8
:1039600050916604609167047091680482E494E069
:103970000E94020B8983CE0103965C016CE0C62E87
:1039800063E0D62E7EEBE72E78E0F72E09E013E019
:103990009E012F5F3F4F4FEE52E067E671E08DEDE5
:1039A00092E00E94830B882309F437C19A9489F628
:1039B00060E082E494E00E94B61660E082E494E065
:1039C0000E949A1981E08B8382E494E00E94721332
:1039D000898358EDC52E52E0D52E05ED12E09E01EB
:1039E0002F5F3F4F41EC52E06CE671E08FEA92E0CE
:1039F0000E94830B882309F410C11C821B82E09172
:103A00005304F0915404309711F0868101C080E096
:103A100090E09A838983CE0103965C013DEAC32E30
:103A200032E0D32E46ECE42E48E0F42E0AEA12E00F
:103A30009E012F5F3F4F44E952E06DE671E082E85E
:103A400092E00E94F50D882309F4E7C010924E041D
:103A500081E08B8382E494E00E94721389839DE766
:103A6000C92E92E0D92E2EEBE22E28E0F22E0AE7A4
:103A700012E09E012F5F3F4F46E652E060E771E0A3
:103A800084E592E00E94830B882309F4C6C081E09C
:103A900090E09C838B83E0915304F0915404309721
:103AA00011F0868101C080E090E09A838983CE0185
:103AB00003965C0102E5C02E02E0D02E86ECE82ED3
:103AC00088E0F82E0FE412E09E012F5F3F4F49E39C
:103AD00052E061E771E087E292E00E94F50D8823F1
:103AE00009F49BC061E082E494E00E94B61660E0B5
:103AF00082E494E00E949A1981E08B8382E494E04E
:103B00000E9472138983B2E2CB2EB2E0DB2E1EEB51
:103B1000E12E18E0F12E0FE112E09E012F5F3F4FE2
:103B20004BE052E065E771E089EF91E00E94830B82
:103B3000882309F472C082E090E09C838B83E0913B
:103B40005304F0915404309709F09680892D90E049
:103B50009A838983CE0103965C01F7EFCF2EF1E0C3
:103B6000DF2EA6ECEA2EA8E0FA2E04EF11E09E016B
:103B70002F5F3F4F4EED51E066E771E08CEC91E036
:103B80000E94F50D882309F448C081E08B8382E40C
:103B900094E00E947213898377ECC72E71E0D72ED0
:103BA000EEEBEE2EE8E0FE2E04EC11E09E012F5F1E
:103BB0003F4F40EB51E068E771E08EE991E00E94F1
:103BC000830B882351F11AE060E082E494E00E94C4
:103BD0009A1982E494E00E944C131150A9F71B82B9
:103BE00082E494E00E9472138983CE0103965C0103
:103BF00058E9C52E51E0D52E6EEBE62E68E0F62E84
:103C000005E911E09E012F5F3F4F41E851E06FE76A
:103C100071E08FE691E00E94830B0F900F900F9060
:103C20000F90DF91CF911F910F91FF90EF90DF9058
:103C3000CF90BF90AF909F908F9008959F92AF923A
:103C4000BF92CF92DF92EF92FF920F931F93CF9389
:103C5000DF9300D000D0CDB7DEB782E494E00E94BD
:103C6000D90A99249394998208E0209163043091B1
:103C700064044091650450916604609167047091FA
:103C8000680482E494E00E94BA118B83CE0101960D
:103C90005C01A8E5CA2EA5E0DA2EBEEBEB2EB8E05B
:103CA000FB2E05E515E09E012D5F3F4F49E355E0F2
:103CB00069E371E087E295E00E94830B882309F4B1
:103CC00057C19B8202E120916304309164044091CA
:103CD000650450916604609167047091680482E401
:103CE00094E00E94BA118983CE0103965C01F2E24E
:103CF000CF2EF5E0DF2E0FE115E09E012F5F3F4F45
:103D000042E055E06BE371E080EF94E00E94830BAA
:103D1000882309F42DC19B8260E082E494E00E9434
:103D20009A198983EBEECE2EE4E0DE2E08EE14E045
:103D30009E012F5F3F4F4CEC54E06CE371E08AEB47
:103D400094E00E94830B882309F412C19B820CE14A
:103D5000209163043091640440916504509166049D
:103D6000609167047091680482E494E00E94BA1143
:103D7000898375EBC72E74E0D72E02EB14E09E0109
:103D80002F5F3F4F45E954E06EE371E083E894E034
:103D90000E94830B882309F4EBC090924E0482E4C6
:103DA00094E00E94721388E090E09C838B83E09102
:103DB0005304F0915404309711F0868101C080E0E3
:103DC00090E09A838983CE0103965C0151E8C52E69
:103DD00054E0D52E66ECE62E68E0F62E0EE714E0F1
:103DE0009E012F5F3F4F48E654E062E471E086E5B4
:103DF00094E00E94F50D882309F4BAC082E494E0AF
:103E00000E944C1382E190E09C838B83E0915304E9
:103E1000F0915404309711F0868101C080E090E069
:103E20009A838983CE0103965C0133E5C32E34E087
:103E3000D32E46ECE42E48E0F42E00E514E09E017B
:103E40002F5F3F4F4AE354E065E471E088E294E07D
:103E50000E94F50D882309F48BC082E494E00E944F
:103E60004C138CE190E09C838B83E0915304F091A0
:103E70005404309711F0868101C080E090E09A836D
:103E80008983CE0103965C0195E2C92E94E0D92E78
:103E900026ECE22E28E0F22E02E214E09E012F5FD3
:103EA0003F4F4CE054E068E471E08AEF93E00E94F9
:103EB000F50D882309F45CC010924E0482E494E06E
:103EC0000E94721388E090E09C838B83E0915304FE
:103ED000F0915404309711F0868101C080E090E0A9
:103EE0009A838983CE0103965C0108EFC02E03E01C
:103EF000D02E86ECE82E88E0F82E05EF13E09E0128
:103F00002F5F3F4F4FED53E06CE471E08DEC93E099
:103F10000E94F50D882361F182E494E00E944C1325
:103F20008CE190E09C838B83E0915304F0915404E6
:103F3000309711F0868101C080E090E09A838983F8
:103F4000CE0103965C01BAECCB2EB3E0DB2E16EC6F
:103F5000E12E18E0F12E07EC13E09E012F5F3F4F9A
:103F600041EB53E06FE471E08FE993E00E94F50DBF
:103F70000F900F900F900F90DF91CF911F910F91A5
:103F8000FF90EF90DF90CF90BF90AF909F900895FB
:103F900082E48093420485E48093430488E090E0C7
:103FA0000E94C128909347048093460410925004C5
:103FB00010924F0410925204109251041092540423
:103FC0001092530410925604109255041092490412
:103FD0001092480410924B0410924A0481E080939E
:103FE0004E0410925804109257048FEF9FEF909355
:103FF0005E0480935D046BE071E086E394E00E94D0
:104000007D258CE492E0909337048093360464E03D
:1040100071E08AE294E00E947D258AE592E0909327
:104020002B0480932A0466EF70E08EE194E00E94F6
:104030007D2588E692E090931F0480931E046DEE28
:1040400070E082E194E00E947D2586E792E0909303
:104050001304809312046AED70E086E094E00E94FD
:104060007D2584E892E0909307048093060463ED35
:1040700070E08AEF93E00E947D2582E992E09093C0
:10408000FB038093FA0360EC70E08EEE93E00E94F5
:104090007D2580EA92E09093EF038093EE0369EB35
:1040A00070E082EE93E00E947D258EEA92E090938C
:1040B000E3038093E20368EA70E086ED93E00E94F8
:1040C0007D258CEB92E09093D7038093D60361EA31
:1040D00070E08AEC93E00E947D258AEC92E0909358
:1040E000CB038093CA036BE970E08EEB93E00E94F0
:1040F0007D2588ED92E09093BF038093BE0364E931
:1041000070E082EB93E00E947D2586EE92E0909332
:10411000B3038093B20363E870E086EA93E00E9401
:104120007D2584EF92E09093A7038093A60369E72F
:1041300070E08AE993E00E947D2582E093E090930D
:104140009B0380939A0361E770E08EE893E00E94FE
:104150007D2580E193E090938F0380938E036DE63D
:1041600070E082E893E00E947D258EE193E09093D9
:1041700083038093820368E670E086E793E00E9401
:104180007D258CE293E090937703809376030895E6
:1041900086E793E00E94E10882E893E00E94E80845
:1041A0008EE893E00E94EF088AE993E00E94F60807
:1041B00086EA93E00E94FD0882EB93E00E940409E6
:1041C0008EEB93E00E940B098AEC93E00E941209A7
:1041D00086ED93E00E94190982EE93E00E94200987
:1041E0008EEE93E00E9427098AEF93E00E942E0949
:1041F00086E094E00E94350982E194E00E943C0947
:104200008EE194E00E9443098AE294E00E944A0908
:1042100086E394E00E94510982E494E00E94D90A66
:1042200080915704909158049093540480935304C0
:104230008091530490915404009789F0E0915704C1
:10424000F09158042085318530935604209355040D
:104250000E94C3288091550490915604E5CF08959B
:104260000895CF93DF93EC01E881F9810084F18513
:10427000E02D09958C81813011F483E08C83DF91EE
:10428000CF9108959B01FC016281738184819581A6
:1042900097FF03C0C9010C949A27C9010C94BF274A
:1042A0000F931F93FB01BA01422FDC0112960D916F
:1042B0001D912D913C91159750E0600F711FCF011A
:1042C00037FF04C01F910F910C94EA2A1F910F91A0
:1042D0000C94FC2AFC0182819381A481B581B7FDF5
:1042E0000C94F32AFC0101900020E9F731979F011B
:1042F000281B390BC9010895BF92CF92DF92EF922C
:10430000FF920F931F93CF93DF93CDB7DEB728971C
:104310000FB6F894DEBF0FBECDBF7C016B0100E08D
:1043200010E0802F8370B82E81F424E0A801BE0134
:104330006B5F7F4FC7010E94502124E0A801BE019E
:104340006F5F7F4FC6010E9450212B2D30E0E5E0CA
:10435000F0E0EC0FFD1FE20FF31F8081E1E0F0E0E1
:10436000EC0FFD1FE20FF31F9081891738F09817AB
:1043700038F0882339F00F5F1F4FD3CF8FEF03C082
:1043800081E001C080E028960FB6F894DEBF0FBE32
:10439000CDBFDF91CF911F910F91FF90EF90DF90F4
:1043A000CF90BF9008952F923F924F925F926F925D
:1043B0007F928F929F92AF92BF92CF92DF92EF92B5
:1043C000FF920F931F93CF93DF93CDB7DEB7639721
:1043D0000FB6F894DEBF0FBECDBF2C015B016DB6EA
:1043E0007EB6788A6F86FB0101900020E9F79F0175
:1043F000215031096901C61AD70A0E946A214C016D
:10440000A60155275C874B87CA0102969C0127703D
:10441000332741E0232B09F440E053E0959587953D
:104420005A95E1F7840F682E712C7A8669862DB72C
:104430003EB7261937090FB6F8943EBF0FBE2DBF01
:104440004DB75EB74F5F5F4F7A011A016DB77EB708
:10445000661977090FB6F8947EBF0FBE6DBF0DB712
:104460001EB70F5F1F4FA30160E070E0C7010E94FD
:10447000052B81E0F701808341E081E090E0F501C8
:10448000E40FF11D319720812A32A9F4242F2695BB
:1044900026952695F701E20FF11D242F27703C0188
:1044A00002C0660C771C2A95E2F793013081322B0B
:1044B00030834F5FE4CFE12CF12C940133273E870A
:1044C0002D872F5F3F4F3A8B298B31E0380D3B8B87
:1044D00088248394912C6D847E846E147F040CF464
:1044E000B6C0370147E0642277246114710489F46F
:1044F00089899A898E199F0908971CF42B892E198E
:1045000001C028E0A701BE016F5F7F4FC2010E947A
:104510005021E1E0F0E0EC0FFD1FE60DF71D70808B
:1045200049855A8560E070E0C8010E94052B80E053
:1045300090E0A72DB0E0AC0147705527FC0123E0C7
:10454000F595E7952A95E1F7E20DF31D208130E01E
:10455000042E02C0359527950A94E2F720FF67C024
:10456000F501E80FF91F20812A3229F5282F269519
:1045700026952695F801E20FF11DB40102C0660FE1
:10458000771F4A95E2F72081262B208321E0280F10
:10459000322F369536953695F801E30FF11D2770C9
:1045A000340102C0660C771C2A95E2F79301308132
:1045B000322B30833CC0332727FD30952A173B0729
:1045C000B1F561E0680F262F269526952695F8010E
:1045D000E20FF11D262F2770A40102C0440F551FC2
:1045E0002A95E2F79A013081322B308320E030E0C7
:1045F000462F420FF501E40FF11D40812F5F3F4F21
:104600004A32A9F4462F420F542F56955695569587
:10461000F801E50FF11D4770340102C0660C771CEC
:104620004A95E2F7A3015081542B5083E1CF0196C4
:104630006B847C84681679060CF07DCF2FEFE21A2C
:10464000F20A922D832D1801092F182F44CF21E053
:104650002C0D822F869586958695F101E80FF11D28
:10466000808190E0277002C0959587952A95E2F7A2
:1046700081706F8478880FB6F8947EBE0FBE6DBED1
:1046800063960FB6F894DEBF0FBECDBFDF91CF911A
:104690001F910F91FF90EF90DF90CF90BF90AF9060
:1046A0009F908F907F906F905F904F903F902F9052
:1046B0000895FF920F931F93CF93DF93EC01E09146
:1046C0007104F0917204848101E0833009F000E00C
:1046D00011E0843009F010E0FF24F394823009F0F7
:1046E000F12C011105C011110FC0F11019C03BC010
:1046F00020916D0430916E042F5F3F4F30936E0414
:1047000020936D04112351F020916B0430916C04BF
:104710002F5F3F4F30936C0420936B04FF20B9F060
:104720002091690430916A042F5F3F4F30936A04EF
:10473000209369048091090183FF09C080910801D9
:1047400083FD9CC0309719F0838583FD97C00023BB
:1047500021F08091090182FD7CC0112321F080911C
:10476000090181FD81C08091730490917404892BAB
:1047700009F0B5C08091090180FFB1C080910801A6
:1047800080FD0AC0E0917104F0917204309709F441
:10479000A6C0838580FFA3C061EF70E18091060110
:1047A000909107010E949A2760916D0470916E04A8
:1047B0004AE050E080910601909107010E94B928DB
:1047C00067EE70E180910601909107010E949A279F
:1047D00060916B0470916C044AE050E08091060196
:1047E000909107010E94B92869ED70E1809106015E
:1047F000909107010E949A276091690470916A0460
:104800004AE050E080910601909107010E94B9288A
:1048100067EC70E180910601909107010E949A2750
:1048200060916F04709170044AE050E0809106013D
:10483000909107010E94B9286DEB70E1809106010B
:1048400090910701DF91CF911F910F91FF900C94F0
:10485000D6278091080182FD11C0309709F47DCFE1
:10486000838582FD0BC079CF8091080181FD06C050
:10487000309709F478CF838581FF75CF6CE171E1C2
:1048800080910601909107010E949A27BE016B5FFB
:104890007F4F80910601909107010E94C827FF2059
:1048A00041F062E171E180910601909107010E945F
:1048B000D627002341F069E071E1809106019091D3
:1048C00007010E94D627112309F44DCF60E071E162
:1048D00080910601909107010E94D62744CFDF9175
:1048E000CF911F910F91FF900895E0917304F09183
:1048F0007404A3E7B4E0309771F0E817F90729F4DE
:10490000828193818D939C930895DF01129602809A
:10491000F381E02DF0CF089520E433E0FC013183F2
:1049200020830C947524CF93DF93EC010E948C2498
:10493000CE01DF91CF910C94C328EF92FF920F9399
:104940001F93CF93DF938C01FC011482C3E7D4E063
:104950007C01F5E0EF0EF11C68817981611571052C
:1049600039F06B5F7F4FC7010E947C211816BCF0A5
:1049700088819981F80193838283198308838091C8
:104980006F049091700401969093700480936F046B
:10499000DF91CF911F910F91FF90EF9008950990B3
:1049A000D881C02D2296D8CF0F931F9320E433E0F7
:1049B000FC01318320832AE333E0368325838B0196
:1049C000222717FD2095322F306807831087218713
:1049D000328743871F910F910C949D2424E0FC01A2
:1049E000248308951F93CF93DF93C3E7D4E011E0AE
:1049F000888199810097C9F1909372048093710422
:104A0000DC0114962C911497213039F4ED91FC912E
:104A10000280F381E02D099511C021110FC0DC0146
:104A2000ED91FC910190F081E02D0995E0917104E8
:104A3000F09172048481811101C01483E0917104AA
:104A4000F09172048481E881F981813059F082818A
:104A500093819983888380917104909172040E945C
:104A60005923C6CFEF012296C3CFDF91CF911F917B
:104A700008950F931F93CF93DF938C01C09173041C
:104A8000D0917404209781F08C81823039F4B80180
:104A9000CE0105960E94D321811104C00A80DB81DA
:104AA000C02DF0CF1C82FACFDF91CF911F910F91D3
:104AB0000895FF920F931F93CF93DF938C01C091C2
:104AC0007304D091740462E0F62E209781F08C81FB
:104AD000811107C0B801CE0105960E94D321811132
:104AE00004C00A80DB81C02DF0CFFC82FACFDF91B9
:104AF000CF911F910F91FF900895CF93DF93EC0119
:104B00004FE10E94D4248CE493E099838883DF9161
:104B1000CF910895FC01818D228D90E0805C9F4FA4
:104B2000821B91098F7399270895FC01918D828DC5
:104B3000981731F0828DE80FF11D858D90E0089572
:104B40008FEF9FEF0895FC01918D828D981761F092
:104B5000828DDF01A80FB11D5D968C91928D9F5FB4
:104B60009F73928F90E008958FEF9FEF0895FC015F
:104B7000848DDF01A80FB11DA35ABF4F2C91848DE6
:104B800090E001968F739927848FA689B7892C931B
:104B9000A089B1898C9180648C93938D848D9813B6
:104BA00006C00288F389E02D80818F7D808308957F
:104BB000CF93DF93EC01888D8823C9F0EA89FB89C4
:104BC000808185FD05C0A889B9898C9186FD0FC0BB
:104BD0000FB607FCF5CF808185FFF2CFA889B98990
:104BE0008C9185FFEDCFCE010E94B725E7CFDF91F5
:104BF000CF910895CF92DF92FF920F931F93CF939F
:104C0000DF931F92CDB7DEB76C0181E0D6015896D5
:104C10008C9358975B969C915B975C968C915C9774
:104C2000981307C05096ED91FC915197808185FDB6
:104C30002EC0F601038D10E00F5F1F4F0F73112779
:104C4000F02EF601848DF81211C00FB607FCF9CFD3
:104C5000D6015096ED91FC915197808185FFF1CF5F
:104C6000C60169830E94B7256981EBCF838DE80F68
:104C7000F11DE35AFF4F6083D6015B960C935B975F
:104C80005296ED91FC915397808180620CC0D601C1
:104C90005696ED91FC91579760835096ED91FC915B
:104CA000519780818064808381E090E00F90DF9154
:104CB000CF911F910F91FF90DF90CF900895BF92F9
:104CC000CF92DF92EF92FF92CF93DF93EC016A01D4
:104CD0007B01B22EE889F98982E08083411581EE5B
:104CE000580761057105A1F060E079E08DE390E07F
:104CF000A70196010E9496292150310941095109C5
:104D00005695479537952795211580E1380798F0F6
:104D1000E889F989108260E874E88EE190E0A701E3
:104D200096010E9496292150310941095109569551
:104D3000479537952795EC85FD853083EE85FF8572
:104D40002083188EEC89FD89B082EA89FB898081F5
:104D500080618083EA89FB89808188608083EA8919
:104D6000FB89808180688083EA89FB8980818F7DCF
:104D70008083DF91CF91FF90EF90DF90CF90BF9035
:104D800008951F920F920FB60F9211242F938F93B5
:104D90009F93EF93FF93E0918504F09186048081C7
:104DA000E0918B04F0918C0482FD12C0908180917F
:104DB0008E048F5F8F7320918F04821751F0E091E2
:104DC0008E04F0E0EB58FB4F958F80938E0401C06A
:104DD0008081FF91EF919F918F912F910F900FBE46
:104DE0000F901F9018951F920F920FB60F921124DB
:104DF0002F933F934F935F936F937F938F939F93E3
:104E0000AF93BF93EF93FF9385E794E00E94B7259C
:104E1000FF91EF91BF91AF919F918F917F916F9192
:104E20005F914F913F912F910F900FBE0F901F9068
:104E30001895109278041092770488EE93E0A0E021
:104E4000B0E08093790490937A04A0937B04B093AC
:104E50007C048AE593E0909376048093750485EC56
:104E600090E0909382048093810484EC90E090938E
:104E700084048093830480EC90E090938604809374
:104E8000850481EC90E0909388048093870482EC01
:104E900090E090938A048093890486EC90E090934C
:104EA0008C0480938B0410928E0410928F041092C5
:104EB0009004109291040895CF92DF92EF92FF92A6
:104EC0000F931F93CF93DF936C017A01EB01E60EF2
:104ED000F71E00E010E0CE15DF0561F06991D60104
:104EE000ED91FC910190F081E02DC6010995080F2C
:104EF000191FF1CFC801DF91CF911F910F91FF9042
:104F0000EF90DF90CF9008956115710581F0DB017E
:104F10000D900020E9F7AD0141505109461B570B98
:104F2000DC01ED91FC910280F381E02D099480E099
:104F300090E00895EF92FF920F931F93CF93DF932A
:104F40008C01FB01C0E0D0E064917F018FEFE81A93
:104F5000F80A662361F0D801ED91FC910190F0818F
:104F6000E02DC8010995C80FD91FF701EDCFCE017B
:104F7000DF91CF911F910F91FF90EF9008950C94C6
:104F80008427DC01ED91FC910190F081E02D0994E2
:104F9000DB01ED91FC9111970190F081E02DBC01B6
:104FA000CD01099466E673E00C9484270F931F9358
:104FB000CF93DF93EC010E949A278C01CE010E94CF
:104FC000D227800F911FDF91CF911F910F910895EC
:104FD0000F931F93CF93DF93EC010E9484278C01E2
:104FE000CE010E94D227800F911FDF91CF911F9198
:104FF0000F9108958F929F92AF92BF92CF92DF92BE
:10500000EF92FF920F931F93CF93DF93CDB7DEB74D
:10501000A1970FB6F894DEBF0FBECDBF7C01C42EA2
:10502000E52FCB01D22E19A221E02D1510F02AE098
:10503000D22E8E010F5D1F4F8D2C912CA12CB12CE7
:105040006C2D7E2FA50194010E9496298C2DD29E55
:1050500080191124015011098A3014F4805D01C0B7
:10506000895CF8018083211531054105510521F046
:10507000C22EE32FCA01E4CFB801C7010E948427E2
:10508000A1960FB6F894DEBF0FBECDBFDF91CF91D2
:105090001F910F91FF90EF90DF90CF90BF90AF9056
:1050A0009F908F900895CF92DF92EF92FF920F938F
:1050B0001F93CF93DF93EC016A017B01211531052A
:1050C00079F4E881F9810190F081E02D642FDF917E
:1050D000CF911F910F91FF90EF90DF90CF900994A7
:1050E0002A303105E9F477FF1AC06DE20E94C1272A
:1050F0008C0144275527BA014C195D096E097F09B7
:105100002AE0CE010E94FA27800F911FDF91CF91F4
:105110001F910F91FF90EF90DF90CF9008952AE0BC
:10512000B701A601CE01DF91CF911F910F91FF90A2
:10513000EF90DF90CF900C94FA279A01AB0166278D
:1051400057FD6095762F0C9453282115310541F4B5
:10515000DC01ED91FC910190F081E02D642F099428
:105160000C94FA279A01462F50E060E070E00C940E
:10517000A5289A01AB0160E070E00C94A5280E947C
:10518000E52A0C94BE290C94562A1F920F920FB652
:105190000F9211242F933F938F939F93AF93BF93BD
:1051A0008091130590911405A0911505B0911605F5
:1051B0003091120523E0230F2D3720F40196A11D15
:1051C000B11D05C026E8230F0296A11DB11D209335
:1051D00012058093130590931405A0931505B093C1
:1051E00016058091170590911805A0911905B091A9
:1051F0001A050196A11DB11D8093170590931805FE
:10520000A0931905B0931A05BF91AF919F918F910B
:105210003F912F910F900FBE0F901F9018953FB7A1
:10522000F8948091170590911805A0911905B091F7
:105230001A0526B5A89B05C02F3F19F00196A11DA0
:10524000B11D3FBF6627782F892F9A2F620F711DDE
:10525000811D911D42E0660F771F881F991F4A9597
:10526000D1F70895CF92DF92EF92FF92CF93DF9321
:105270006B017C010E940F29EB01C114D104E104F0
:10528000F10489F00E9495290E940F296C1B7D0B67
:10529000683E734090F381E0C81AD108E108F10834
:1052A000C851DC4FEACFDF91CF91FF90EF90DF90B4
:1052B000CF900895789484B5826084BD84B5816070
:1052C00084BD85B5826085BD85B5816085BDEEE60E
:1052D000F0E0808181608083E1E8F0E010828081ED
:1052E00082608083808181608083E0E8F0E080815B
:1052F00081608083E1EBF0E0808184608083E0EB7B
:10530000F0E0808181608083EAE7F0E08081846062
:1053100080838081826080838081816080838081BE
:10532000806880831092C10008950895A1E21A2E2A
:10533000AA1BBB1BFD010DC0AA1FBB1FEE1FFF1F39
:10534000A217B307E407F50720F0A21BB30BE40B89
:10535000F50B661F771F881F991F1A9469F76095D0
:105360007095809590959B01AC01BD01CF0108958A
:10537000EE0FFF1F0590F491E02D0994CF93DF937A
:105380008230910510F482E090E0E0911D05F091EB
:105390001E0520E030E0A0E0B0E0309739F1408118
:1053A000518148175907B8F04817590771F482819D
:1053B0009381109729F013969C938E9312972CC08B
:1053C00090931E0580931D0527C02115310531F0EE
:1053D0004217530718F0A901DB0101C0EF019A0140
:1053E000BD01DF010280F381E02DD7CF211531050A
:1053F000F9F0281B390B2430310580F48A819B8118
:105400006115710521F0FB019383828304C09093A1
:105410001E0580931D05FE01329644C0FE01E20F79
:10542000F31F8193919322503109398328833AC025
:1054300020911B0530911C05232B41F42091020182
:105440003091030130931C0520931B05209100012E
:10545000309101012115310541F42DB73EB740913E
:10546000040150910501241B350BE0911B05F091BF
:105470001C05E217F307A0F42E1B3F0B2817390772
:1054800078F0AC014E5F5F4F2417350748F04E0FA0
:105490005F1F50931C0540931B058193919302C09D
:1054A000E0E0F0E0CF01DF91CF910895CF93DF935B
:1054B000009709F487C0FC01329713821282C091D1
:1054C0001D05D0911E05209781F420813181280F80
:1054D000391F80911B0590911C058217930779F560
:1054E000F0931C05E0931B056DC0DE0120E030E069
:1054F000AE17BF0750F412964D915C9113979D0122
:105500004115510509F1DA01F3CFB383A28340813C
:105510005181840F951F8A179B0771F48D919C917F
:105520001197840F951F02969183808312968D9117
:105530009C911397938382832115310529F4F0936D
:105540001E05E0931D053EC0D9011396FC93EE9312
:1055500012974D915D91A40FB51FEA17FB0779F4DF
:1055600080819181840F951F0296D90111969C9399
:105570008E938281938113969C938E931297E0E091
:10558000F0E08A819B81009719F0FE01EC01F9CFD0
:10559000CE01029628813981820F931F20911B052D
:1055A00030911C052817390769F4309729F41092B7
:1055B0001E0510921D0502C013821282D0931C0595
:1055C000C0931B05DF91CF91089581E090E0F8949E
:1055D0000C940C2BFB01DC0102C005900D92415094
:1055E0005040D8F70895FC0105900020E9F7809518
:1055F00090958E0F9F1F0895FB01DC0102C0019062
:105600000D9241505040D8F70895DC0101C06D93D0
:1056100041505040E0F7089511E1C6E2D1E104C0E5
:10562000FE010E94BA292296C832D107C9F7F89420
:02563000FFCFAA
:1056320000001F0580007504013F546573742058F3
:105642005461626C652041726475696E6F20436CAF
:10565200617373002A00436C65616E00496E736565
:10566200727400496E73657274436865636B496452
:1056720000496E73657274496400496E7365727491
:10568200496454656E456E74726965730053656C46
:105692006563740053656C656374496454656E4553
:1056A2006E7472696573005570646174650055703B
:1056B2006461746553706563696669634964004433
:1056C200656C657465004765744964005374617460
:1056D20075730053746174757354656E456E74729C
:1056E2006965730042726F777365416C6C00436F3A
:1056F200756E74657200546F70004E65787400495F
:105702006E697453746F7261676500536176655395
:10571200746F72616765004C6F616453746F72617C
:10572200676500476574546F704164647265737392
:1057320053746F72616765004E6578744672656571
:105742004164647265737353746F72616765004577
:1057520072726F723A2063616E6E6F7420616C6C4C
:105762006F63617465207265717569726564206D1D
:10577200656D6F7279002E0000000000302131212A
:105782005109020A410F00000000302131214A096B
:10579200F809DF0F00000000302131214309EE0932
:1057A200851300000000302131213C09E4098112F7
:1057B20000000000302131213509DA09FD13000013
:1057C2000000302131212E09D0094F1000000000C5
:1057D200302131212709C609BF17000000003021FE
:1057E20031212009BC09CD100000000030213121F7
:1057F2001909B209371800000000302131211209BD
:10580200A809C20C00000000302131210B099E09B9
:1058120090140000000030213121040994094E1B2C
:105822000000000030213121FD088A09AE19000074
:10583200000030213121F60880091E1E0000000000
:1058420030213121EF087609DE0E00000000302100
:105852003121E8086C09701C000000003021312160
:10586200E10862092A19000000004221000000003C
:105872003021BF288C2493240000000030213121E4
:10588200DA085809BF2800000000FA255C278A259B
:10589200A3259525D8250D0A006E616E00696E66F6
:0658A200006F76660000B5
:00000001FF
